{
  "_format": "hh-sol-artifact-1",
  "contractName": "NFTBridgeEthereum",
  "sourceName": "contracts/NFTBridgeEthereum.sol",
  "abi": [
    {
      "inputs": [
        {
          "internalType": "address",
          "name": "_messagingContract",
          "type": "address"
        }
      ],
      "stateMutability": "nonpayable",
      "type": "constructor"
    },
    {
      "inputs": [
        {
          "internalType": "address",
          "name": "owner",
          "type": "address"
        }
      ],
      "name": "OwnableInvalidOwner",
      "type": "error"
    },
    {
      "inputs": [
        {
          "internalType": "address",
          "name": "account",
          "type": "address"
        }
      ],
      "name": "OwnableUnauthorizedAccount",
      "type": "error"
    },
    {
      "anonymous": false,
      "inputs": [
        {
          "indexed": true,
          "internalType": "address",
          "name": "user",
          "type": "address"
        },
        {
          "indexed": true,
          "internalType": "address",
          "name": "nftAddress",
          "type": "address"
        },
        {
          "indexed": false,
          "internalType": "uint256",
          "name": "tokenId",
          "type": "uint256"
        },
        {
          "indexed": false,
          "internalType": "uint256",
          "name": "starknetRecipient",
          "type": "uint256"
        }
      ],
      "name": "NFTLocked",
      "type": "event"
    },
    {
      "anonymous": false,
      "inputs": [
        {
          "indexed": true,
          "internalType": "address",
          "name": "previousOwner",
          "type": "address"
        },
        {
          "indexed": true,
          "internalType": "address",
          "name": "newOwner",
          "type": "address"
        }
      ],
      "name": "OwnershipTransferred",
      "type": "event"
    },
    {
      "inputs": [
        {
          "internalType": "address",
          "name": "nftAddress",
          "type": "address"
        },
        {
          "internalType": "uint256",
          "name": "tokenId",
          "type": "uint256"
        },
        {
          "internalType": "uint256",
          "name": "selector",
          "type": "uint256"
        },
        {
          "internalType": "uint256",
          "name": "l2ContractAddress",
          "type": "uint256"
        },
        {
          "internalType": "uint256",
          "name": "starknetRecipient",
          "type": "uint256"
        }
      ],
      "name": "lockNFT",
      "outputs": [],
      "stateMutability": "payable",
      "type": "function"
    },
    {
      "inputs": [],
      "name": "messagingContract",
      "outputs": [
        {
          "internalType": "contract ContractMsg",
          "name": "",
          "type": "address"
        }
      ],
      "stateMutability": "view",
      "type": "function"
    },
    {
      "inputs": [
        {
          "internalType": "address",
          "name": "",
          "type": "address"
        },
        {
          "internalType": "address",
          "name": "",
          "type": "address"
        },
        {
          "internalType": "uint256",
          "name": "",
          "type": "uint256"
        },
        {
          "internalType": "bytes",
          "name": "",
          "type": "bytes"
        }
      ],
      "name": "onERC721Received",
      "outputs": [
        {
          "internalType": "bytes4",
          "name": "",
          "type": "bytes4"
        }
      ],
      "stateMutability": "pure",
      "type": "function"
    },
    {
      "inputs": [],
      "name": "owner",
      "outputs": [
        {
          "internalType": "address",
          "name": "",
          "type": "address"
        }
      ],
      "stateMutability": "view",
      "type": "function"
    },
    {
      "inputs": [],
      "name": "renounceOwnership",
      "outputs": [],
      "stateMutability": "nonpayable",
      "type": "function"
    },
    {
      "inputs": [
        {
          "internalType": "address",
          "name": "_starknetMessaging",
          "type": "address"
        }
      ],
      "name": "setStarknetMessaging",
      "outputs": [],
      "stateMutability": "nonpayable",
      "type": "function"
    },
    {
      "inputs": [
        {
          "internalType": "address",
          "name": "newOwner",
          "type": "address"
        }
      ],
      "name": "transferOwnership",
      "outputs": [],
      "stateMutability": "nonpayable",
      "type": "function"
    }
  ],
  "bytecode": "0x608060405234801561001057600080fd5b50604051610dfd380380610dfd83398181016040528101906100329190610223565b33600073ffffffffffffffffffffffffffffffffffffffff168173ffffffffffffffffffffffffffffffffffffffff16036100a55760006040517f1e4fbdf700000000000000000000000000000000000000000000000000000000815260040161009c919061025f565b60405180910390fd5b6100b4816100fc60201b60201c565b5080600160006101000a81548173ffffffffffffffffffffffffffffffffffffffff021916908373ffffffffffffffffffffffffffffffffffffffff1602179055505061027a565b60008060009054906101000a900473ffffffffffffffffffffffffffffffffffffffff169050816000806101000a81548173ffffffffffffffffffffffffffffffffffffffff021916908373ffffffffffffffffffffffffffffffffffffffff1602179055508173ffffffffffffffffffffffffffffffffffffffff168173ffffffffffffffffffffffffffffffffffffffff167f8be0079c531659141344cd1fd0a4f28419497f9722a3daafe3b4186f6b6457e060405160405180910390a35050565b600080fd5b600073ffffffffffffffffffffffffffffffffffffffff82169050919050565b60006101f0826101c5565b9050919050565b610200816101e5565b811461020b57600080fd5b50565b60008151905061021d816101f7565b92915050565b600060208284031215610239576102386101c0565b5b60006102478482850161020e565b91505092915050565b610259816101e5565b82525050565b60006020820190506102746000830184610250565b92915050565b610b74806102896000396000f3fe6080604052600436106100705760003560e01c80638da5cb5b1161004e5780638da5cb5b146100f4578063939d09a61461011f578063e0dc0bfd1461013b578063f2fde38b1461016457610070565b8063150b7a0214610075578063715018a6146100b2578063755f3402146100c9575b600080fd5b34801561008157600080fd5b5061009c6004803603810190610097919061074b565b61018d565b6040516100a9919061080e565b60405180910390f35b3480156100be57600080fd5b506100c76101a2565b005b3480156100d557600080fd5b506100de6101b6565b6040516100eb9190610888565b60405180910390f35b34801561010057600080fd5b506101096101dc565b60405161011691906108b2565b60405180910390f35b610139600480360381019061013491906108cd565b610205565b005b34801561014757600080fd5b50610162600480360381019061015d9190610948565b610423565b005b34801561017057600080fd5b5061018b60048036038101906101869190610948565b61046f565b005b600063150b7a0260e01b905095945050505050565b6101aa6104f5565b6101b4600061057c565b565b600160009054906101000a900473ffffffffffffffffffffffffffffffffffffffff1681565b60008060009054906101000a900473ffffffffffffffffffffffffffffffffffffffff16905090565b60008590508073ffffffffffffffffffffffffffffffffffffffff166323b872dd3330886040518463ffffffff1660e01b815260040161024793929190610984565b600060405180830381600087803b15801561026157600080fd5b505af1158015610275573d6000803e3d6000fd5b505050506000600267ffffffffffffffff811115610296576102956109bb565b5b6040519080825280602002602001820160405280156102c45781602001602082028036833780820191505090505b5090508273ffffffffffffffffffffffffffffffffffffffff16816000815181106102f2576102f16109ea565b5b6020026020010181815250508581600181518110610313576103126109ea565b5b602002602001018181525050600160009054906101000a900473ffffffffffffffffffffffffffffffffffffffff1673ffffffffffffffffffffffffffffffffffffffff1663b66438386175308688856040518563ffffffff1660e01b815260040161038193929190610ad7565b6000604051808303818588803b15801561039a57600080fd5b505af11580156103ae573d6000803e3d6000fd5b50505050508673ffffffffffffffffffffffffffffffffffffffff163373ffffffffffffffffffffffffffffffffffffffff167f20396bfcfa769a8877030da41fa31e149ebb9173688ae00a7fdb9b8c50b913b78886604051610412929190610b15565b60405180910390a350505050505050565b61042b6104f5565b80600160006101000a81548173ffffffffffffffffffffffffffffffffffffffff021916908373ffffffffffffffffffffffffffffffffffffffff16021790555050565b6104776104f5565b600073ffffffffffffffffffffffffffffffffffffffff168173ffffffffffffffffffffffffffffffffffffffff16036104e95760006040517f1e4fbdf70000000000000000000000000000000000000000000000000000000081526004016104e091906108b2565b60405180910390fd5b6104f28161057c565b50565b6104fd610640565b73ffffffffffffffffffffffffffffffffffffffff1661051b6101dc565b73ffffffffffffffffffffffffffffffffffffffff161461057a5761053e610640565b6040517f118cdaa700000000000000000000000000000000000000000000000000000000815260040161057191906108b2565b60405180910390fd5b565b60008060009054906101000a900473ffffffffffffffffffffffffffffffffffffffff169050816000806101000a81548173ffffffffffffffffffffffffffffffffffffffff021916908373ffffffffffffffffffffffffffffffffffffffff1602179055508173ffffffffffffffffffffffffffffffffffffffff168173ffffffffffffffffffffffffffffffffffffffff167f8be0079c531659141344cd1fd0a4f28419497f9722a3daafe3b4186f6b6457e060405160405180910390a35050565b600033905090565b600080fd5b600080fd5b600073ffffffffffffffffffffffffffffffffffffffff82169050919050565b600061067d82610652565b9050919050565b61068d81610672565b811461069857600080fd5b50565b6000813590506106aa81610684565b92915050565b6000819050919050565b6106c3816106b0565b81146106ce57600080fd5b50565b6000813590506106e0816106ba565b92915050565b600080fd5b600080fd5b600080fd5b60008083601f84011261070b5761070a6106e6565b5b8235905067ffffffffffffffff811115610728576107276106eb565b5b602083019150836001820283011115610744576107436106f0565b5b9250929050565b60008060008060006080868803121561076757610766610648565b5b60006107758882890161069b565b95505060206107868882890161069b565b9450506040610797888289016106d1565b935050606086013567ffffffffffffffff8111156107b8576107b761064d565b5b6107c4888289016106f5565b92509250509295509295909350565b60007fffffffff0000000000000000000000000000000000000000000000000000000082169050919050565b610808816107d3565b82525050565b600060208201905061082360008301846107ff565b92915050565b6000819050919050565b600061084e61084961084484610652565b610829565b610652565b9050919050565b600061086082610833565b9050919050565b600061087282610855565b9050919050565b61088281610867565b82525050565b600060208201905061089d6000830184610879565b92915050565b6108ac81610672565b82525050565b60006020820190506108c760008301846108a3565b92915050565b600080600080600060a086880312156108e9576108e8610648565b5b60006108f78882890161069b565b9550506020610908888289016106d1565b9450506040610919888289016106d1565b935050606061092a888289016106d1565b925050608061093b888289016106d1565b9150509295509295909350565b60006020828403121561095e5761095d610648565b5b600061096c8482850161069b565b91505092915050565b61097e816106b0565b82525050565b600060608201905061099960008301866108a3565b6109a660208301856108a3565b6109b36040830184610975565b949350505050565b7f4e487b7100000000000000000000000000000000000000000000000000000000600052604160045260246000fd5b7f4e487b7100000000000000000000000000000000000000000000000000000000600052603260045260246000fd5b600081519050919050565b600082825260208201905092915050565b6000819050602082019050919050565b610a4e816106b0565b82525050565b6000610a608383610a45565b60208301905092915050565b6000602082019050919050565b6000610a8482610a19565b610a8e8185610a24565b9350610a9983610a35565b8060005b83811015610aca578151610ab18882610a54565b9750610abc83610a6c565b925050600181019050610a9d565b5085935050505092915050565b6000606082019050610aec6000830186610975565b610af96020830185610975565b8181036040830152610b0b8184610a79565b9050949350505050565b6000604082019050610b2a6000830185610975565b610b376020830184610975565b939250505056fea2646970667358221220301d551a9d435932ce6ccafe5fb7c1f2960e97d527717fe4a20ba3e4a471d41264736f6c634300081c0033",
  "linkReferences": {},
  "deployedLinkReferences": {}
}