{
  "_format": "hh-sol-artifact-1",
  "contractName": "NFTBridgeEthereum",
  "sourceName": "contracts/NFTBridgeEthereum.sol",
  "abi": [
    {
      "inputs": [
        {
          "internalType": "address",
          "name": "_messagingContract",
          "type": "address"
        }
      ],
      "stateMutability": "nonpayable",
      "type": "constructor"
    },
    {
      "inputs": [
        {
          "internalType": "address",
          "name": "owner",
          "type": "address"
        }
      ],
      "name": "OwnableInvalidOwner",
      "type": "error"
    },
    {
      "inputs": [
        {
          "internalType": "address",
          "name": "account",
          "type": "address"
        }
      ],
      "name": "OwnableUnauthorizedAccount",
      "type": "error"
    },
    {
      "anonymous": false,
      "inputs": [
        {
          "indexed": true,
          "internalType": "address",
          "name": "user",
          "type": "address"
        },
        {
          "indexed": true,
          "internalType": "address",
          "name": "nftAddress",
          "type": "address"
        },
        {
          "indexed": false,
          "internalType": "uint256",
          "name": "tokenId",
          "type": "uint256"
        },
        {
          "indexed": false,
          "internalType": "uint256",
          "name": "starknetRecipient",
          "type": "uint256"
        }
      ],
      "name": "NFTLocked",
      "type": "event"
    },
    {
      "anonymous": false,
      "inputs": [
        {
          "indexed": true,
          "internalType": "address",
          "name": "previousOwner",
          "type": "address"
        },
        {
          "indexed": true,
          "internalType": "address",
          "name": "newOwner",
          "type": "address"
        }
      ],
      "name": "OwnershipTransferred",
      "type": "event"
    },
    {
      "inputs": [
        {
          "internalType": "address",
          "name": "nftAddress",
          "type": "address"
        },
        {
          "internalType": "uint256",
          "name": "tokenId",
          "type": "uint256"
        },
        {
          "internalType": "uint256",
          "name": "selector",
          "type": "uint256"
        },
        {
          "internalType": "uint256",
          "name": "l2ContractAddress",
          "type": "uint256"
        },
        {
          "internalType": "uint256",
          "name": "starknetRecipient",
          "type": "uint256"
        }
      ],
      "name": "lockNFT",
      "outputs": [],
      "stateMutability": "payable",
      "type": "function"
    },
    {
      "inputs": [],
      "name": "messagingContract",
      "outputs": [
        {
          "internalType": "contract StarknetMessaging",
          "name": "",
          "type": "address"
        }
      ],
      "stateMutability": "view",
      "type": "function"
    },
    {
      "inputs": [
        {
          "internalType": "address",
          "name": "",
          "type": "address"
        },
        {
          "internalType": "address",
          "name": "",
          "type": "address"
        },
        {
          "internalType": "uint256",
          "name": "",
          "type": "uint256"
        },
        {
          "internalType": "bytes",
          "name": "",
          "type": "bytes"
        }
      ],
      "name": "onERC721Received",
      "outputs": [
        {
          "internalType": "bytes4",
          "name": "",
          "type": "bytes4"
        }
      ],
      "stateMutability": "pure",
      "type": "function"
    },
    {
      "inputs": [],
      "name": "owner",
      "outputs": [
        {
          "internalType": "address",
          "name": "",
          "type": "address"
        }
      ],
      "stateMutability": "view",
      "type": "function"
    },
    {
      "inputs": [],
      "name": "renounceOwnership",
      "outputs": [],
      "stateMutability": "nonpayable",
      "type": "function"
    },
    {
      "inputs": [
        {
          "internalType": "address",
          "name": "_starknetMessaging",
          "type": "address"
        }
      ],
      "name": "setStarknetMessaging",
      "outputs": [],
      "stateMutability": "nonpayable",
      "type": "function"
    },
    {
      "inputs": [
        {
          "internalType": "address",
          "name": "newOwner",
          "type": "address"
        }
      ],
      "name": "transferOwnership",
      "outputs": [],
      "stateMutability": "nonpayable",
      "type": "function"
    }
  ],
  "bytecode": "0x608060405234801561001057600080fd5b50604051610f44380380610f4483398181016040528101906100329190610223565b33600073ffffffffffffffffffffffffffffffffffffffff168173ffffffffffffffffffffffffffffffffffffffff16036100a55760006040517f1e4fbdf700000000000000000000000000000000000000000000000000000000815260040161009c919061025f565b60405180910390fd5b6100b4816100fc60201b60201c565b5080600160006101000a81548173ffffffffffffffffffffffffffffffffffffffff021916908373ffffffffffffffffffffffffffffffffffffffff1602179055505061027a565b60008060009054906101000a900473ffffffffffffffffffffffffffffffffffffffff169050816000806101000a81548173ffffffffffffffffffffffffffffffffffffffff021916908373ffffffffffffffffffffffffffffffffffffffff1602179055508173ffffffffffffffffffffffffffffffffffffffff168173ffffffffffffffffffffffffffffffffffffffff167f8be0079c531659141344cd1fd0a4f28419497f9722a3daafe3b4186f6b6457e060405160405180910390a35050565b600080fd5b600073ffffffffffffffffffffffffffffffffffffffff82169050919050565b60006101f0826101c5565b9050919050565b610200816101e5565b811461020b57600080fd5b50565b60008151905061021d816101f7565b92915050565b600060208284031215610239576102386101c0565b5b60006102478482850161020e565b91505092915050565b610259816101e5565b82525050565b60006020820190506102746000830184610250565b92915050565b610cbb806102896000396000f3fe6080604052600436106100705760003560e01c80638da5cb5b1161004e5780638da5cb5b146100f4578063939d09a61461011f578063e0dc0bfd1461013b578063f2fde38b1461016457610070565b8063150b7a0214610075578063715018a6146100b2578063755f3402146100c9575b600080fd5b34801561008157600080fd5b5061009c6004803603810190610097919061078a565b61018d565b6040516100a9919061084d565b60405180910390f35b3480156100be57600080fd5b506100c76101a2565b005b3480156100d557600080fd5b506100de6101b6565b6040516100eb91906108c7565b60405180910390f35b34801561010057600080fd5b506101096101dc565b60405161011691906108f1565b60405180910390f35b6101396004803603810190610134919061090c565b610205565b005b34801561014757600080fd5b50610162600480360381019061015d9190610987565b610462565b005b34801561017057600080fd5b5061018b60048036038101906101869190610987565b6104ae565b005b600063150b7a0260e01b905095945050505050565b6101aa610534565b6101b460006105bb565b565b600160009054906101000a900473ffffffffffffffffffffffffffffffffffffffff1681565b60008060009054906101000a900473ffffffffffffffffffffffffffffffffffffffff16905090565b614e2034101561024a576040517f08c379a000000000000000000000000000000000000000000000000000000000815260040161024190610a11565b60405180910390fd5b60008590508073ffffffffffffffffffffffffffffffffffffffff166323b872dd3330886040518463ffffffff1660e01b815260040161028c93929190610a40565b600060405180830381600087803b1580156102a657600080fd5b505af11580156102ba573d6000803e3d6000fd5b505050506000600267ffffffffffffffff8111156102db576102da610a77565b5b6040519080825280602002602001820160405280156103095781602001602082028036833780820191505090505b509050828160008151811061032157610320610aa6565b5b602002602001018181525050858160018151811061034257610341610aa6565b5b602002602001018181525050600160009054906101000a900473ffffffffffffffffffffffffffffffffffffffff1673ffffffffffffffffffffffffffffffffffffffff16633e3aa6c5348688856040518563ffffffff1660e01b81526004016103ae93929190610b93565b604080518083038185885af11580156103cb573d6000803e3d6000fd5b50505050506040513d601f19601f820116820180604052508101906103f09190610c1c565b50508673ffffffffffffffffffffffffffffffffffffffff163373ffffffffffffffffffffffffffffffffffffffff167f20396bfcfa769a8877030da41fa31e149ebb9173688ae00a7fdb9b8c50b913b78886604051610451929190610c5c565b60405180910390a350505050505050565b61046a610534565b80600160006101000a81548173ffffffffffffffffffffffffffffffffffffffff021916908373ffffffffffffffffffffffffffffffffffffffff16021790555050565b6104b6610534565b600073ffffffffffffffffffffffffffffffffffffffff168173ffffffffffffffffffffffffffffffffffffffff16036105285760006040517f1e4fbdf700000000000000000000000000000000000000000000000000000000815260040161051f91906108f1565b60405180910390fd5b610531816105bb565b50565b61053c61067f565b73ffffffffffffffffffffffffffffffffffffffff1661055a6101dc565b73ffffffffffffffffffffffffffffffffffffffff16146105b95761057d61067f565b6040517f118cdaa70000000000000000000000000000000000000000000000000000000081526004016105b091906108f1565b60405180910390fd5b565b60008060009054906101000a900473ffffffffffffffffffffffffffffffffffffffff169050816000806101000a81548173ffffffffffffffffffffffffffffffffffffffff021916908373ffffffffffffffffffffffffffffffffffffffff1602179055508173ffffffffffffffffffffffffffffffffffffffff168173ffffffffffffffffffffffffffffffffffffffff167f8be0079c531659141344cd1fd0a4f28419497f9722a3daafe3b4186f6b6457e060405160405180910390a35050565b600033905090565b600080fd5b600080fd5b600073ffffffffffffffffffffffffffffffffffffffff82169050919050565b60006106bc82610691565b9050919050565b6106cc816106b1565b81146106d757600080fd5b50565b6000813590506106e9816106c3565b92915050565b6000819050919050565b610702816106ef565b811461070d57600080fd5b50565b60008135905061071f816106f9565b92915050565b600080fd5b600080fd5b600080fd5b60008083601f84011261074a57610749610725565b5b8235905067ffffffffffffffff8111156107675761076661072a565b5b6020830191508360018202830111156107835761078261072f565b5b9250929050565b6000806000806000608086880312156107a6576107a5610687565b5b60006107b4888289016106da565b95505060206107c5888289016106da565b94505060406107d688828901610710565b935050606086013567ffffffffffffffff8111156107f7576107f661068c565b5b61080388828901610734565b92509250509295509295909350565b60007fffffffff0000000000000000000000000000000000000000000000000000000082169050919050565b61084781610812565b82525050565b6000602082019050610862600083018461083e565b92915050565b6000819050919050565b600061088d61088861088384610691565b610868565b610691565b9050919050565b600061089f82610872565b9050919050565b60006108b182610894565b9050919050565b6108c1816108a6565b82525050565b60006020820190506108dc60008301846108b8565b92915050565b6108eb816106b1565b82525050565b600060208201905061090660008301846108e2565b92915050565b600080600080600060a0868803121561092857610927610687565b5b6000610936888289016106da565b955050602061094788828901610710565b945050604061095888828901610710565b935050606061096988828901610710565b925050608061097a88828901610710565b9150509295509295909350565b60006020828403121561099d5761099c610687565b5b60006109ab848285016106da565b91505092915050565b600082825260208201905092915050565b7f496e636f72726563742066656500000000000000000000000000000000000000600082015250565b60006109fb600d836109b4565b9150610a06826109c5565b602082019050919050565b60006020820190508181036000830152610a2a816109ee565b9050919050565b610a3a816106ef565b82525050565b6000606082019050610a5560008301866108e2565b610a6260208301856108e2565b610a6f6040830184610a31565b949350505050565b7f4e487b7100000000000000000000000000000000000000000000000000000000600052604160045260246000fd5b7f4e487b7100000000000000000000000000000000000000000000000000000000600052603260045260246000fd5b600081519050919050565b600082825260208201905092915050565b6000819050602082019050919050565b610b0a816106ef565b82525050565b6000610b1c8383610b01565b60208301905092915050565b6000602082019050919050565b6000610b4082610ad5565b610b4a8185610ae0565b9350610b5583610af1565b8060005b83811015610b86578151610b6d8882610b10565b9750610b7883610b28565b925050600181019050610b59565b5085935050505092915050565b6000606082019050610ba86000830186610a31565b610bb56020830185610a31565b8181036040830152610bc78184610b35565b9050949350505050565b6000819050919050565b610be481610bd1565b8114610bef57600080fd5b50565b600081519050610c0181610bdb565b92915050565b600081519050610c16816106f9565b92915050565b60008060408385031215610c3357610c32610687565b5b6000610c4185828601610bf2565b9250506020610c5285828601610c07565b9150509250929050565b6000604082019050610c716000830185610a31565b610c7e6020830184610a31565b939250505056fea26469706673582212205eea744117ed5140756400860cebd274e67856863fc92f7cc620133227b8b18b64736f6c634300081c0033",
  "linkReferences": {},
  "deployedLinkReferences": {}
}